:1000000000308A00C72B0000FF00030E8301A1000F
:100010007F08A0000A08A8008A01A00E0408A20018
:100020007708A3007808A4007908A5007A08A6003C
:100030007B08A700831383120B1E20288B18F72838
:10004000220884002308F7002408F8002508F90096
:100050002608FA002708FB0028088A00210E8300E2
:10006000FF0E7F0E09000A108A100A118207283439
:100070000C34013406340A108A100A1182070C3439
:100080002A3420342034543469346D3465342034B7
:100090004D346F34643465340A34203420342034D1
:1000A00041346C34613472346D3420344D346F34E7
:1000B0006434653400340A108A100A1182070C3443
:1000C000203420342034543469346D346534203481
:1000D0004D346F34643465340A342A342034203487
:1000E00041346C34613472346D3420344D346F34A7
:1000F0006434653400340A108A100A1182070C3403
:100100002034543469346D3465343A342034253421
:100110003034323444343A34253430343234443494
:100120003A3425343034323444340A3420344434BC
:100130006134743465343A34203425343034323404
:1001400044342F3425343034323444342F3425347D
:10015000303432344434203400340A108A100A1106
:1001600082070C34203441346C34613472346D3481
:100170003A34203425343034323444343A3425345B
:100180003034323444340A344F344E3400340A109C
:100190008A100A1182070C34203441346C346134E3
:1001A00072346D343A3420342534303432344434AB
:1001B0003A3425343034323444340A344F344634FB
:1001C0004634003449308400831300080319F628AC
:1001D0000130F800F701F70BEB28F80BEA284A305A
:1001E000F700F70BF128F428800BE8280034061CF0
:1001F000FD280A30C900E220F7283508093C031C15
:1002000004290A30B5000729B70A0130B6008B105F
:100210008A11202848180E2906120F29061683165F
:1002200006128312C81816298612172986168316F5
:100230008612831248191E2906131F2906178316D2
:1002400006138312C81926298613272986178316B1
:10025000861300000511831205152E29831605113A
:100260008312051100348316051083120510133014
:10027000F700F70B39293C29C508031944298316CF
:1002800005108312051448298316051083120510E2
:1002900000008316051183120511460EC7000F30AA
:1002A000C7054708C8000A2146080F39C700C8001B
:1002B0000A210034831605108312051083160511D8
:1002C00083120511A9018B1BA9178B130F30C900CD
:1002D000E220A91B8B17B8013808023C031C7E29B9
:1002E0000330C8000A21A9018B1BA9178B13053005
:1002F000C900E220A91B8B17B80A6C290230C8007C
:100300000A21B8013808033C031C98293808332017
:10031000B900C5013908C6003321A9018B1BA917F3
:100320008B130530C900E220A91B8B17B80A82295C
:10033000FE2B0830F800000006118316061100009D
:100340008312C00D8610031CA829831686148312FD
:100350000318AD298316861083128316061583129F
:10036000061DB029F80B9B29000006118316061103
:10037000000086140000000006158312061DBE2929
:10038000F8010000861878140611831606118312EE
:10039000861083168610831200340830BD0077085B
:1003A000BE0083168614000006158312061DD6298A
:1003B00086180314861C0310F80D0000831606111E
:1003C00083120611BD0BD1298316861400008312F7
:1003D00086103E080319EF29831686108312000049
:1003E000831606158312061DF329000006118316D5
:1003F00006110000831286108316861083120034C3
:100400003E08BF000310BF0C7830BF053F0CF7005B
:10041000F70C3F30F70577083F07C0003E080F395B
:100420004007F80000343F08C000C1014008093C03
:1004300003181F2A0A30C0021030C107222A4008C0
:10044000C107232A162A4108F8000034B801831690
:10045000861400000615000083128610831686108D
:1004600000008312061183160611D0308312C000DB
:100470009921C001992183168614000006150000F9
:100480008312061D412A86108316861000008312EF
:10049000061183160611D1308312C0009921F7018D
:1004A000CD217808B900BE0000227808B800831674
:1004B0008610000006158312061D5C2A0000602AC3
:1004C00000008316861400008312B813672A000008
:1004D000831686140000061500008312861083160A
:1004E000861000008312061183160611D030831285
:1004F000C0009921C00199213808BF001322780853
:10050000B900C0009921831686140000061500006A
:100510008312061D892A8610831686100000831216
:10052000061183160611D0308312C00099210730BE
:10053000C00099218030C0009921831686100000E8
:1005400006158312061DA22A0000A62A00008316A3
:10055000861400008312FF2BBE133F30BC058316A8
:10056000861400000615000083128610831686107C
:1005700000008312061183160611D0308312C000CA
:100580009921C00199213E08BF0013227808BF00BD
:10059000C00099213D08BF0013227808BF00C000A9
:1005A00099213C08BF0013227808BF00C0009921A0
:1005B0003B08BF0013227808BF00C000992138080B
:1005C000BF0013227808BF00C00099213908BF007E
:1005D00013227808BF00C00099213A08BF001322F7
:1005E0007808BF00C00099218030C000992183168F
:1005F0008610000006158312061DFC2A0000002B41
:10060000000083168614000083120034420B092B6D
:100610000C2B4030C3000D2BC30101304102C30736
:1006200043088038C400C5014408C60033210034A3
:1006300040080C3A0319232B063A0319312B023ACE
:100640000319372B3C2BC5010130C6003321A9010A
:100650008B1BA9178B130230C900E220A91B8B1733
:10066000422B0130C1000230C2000623422BC501DB
:100670001030C6003321422B0130C5004008C600AF
:100680003321422B00344108F801400203184B2B60
:100690004008F700572BF7010830C200C00DF70DD6
:1006A000410877020318F700F80DC20B4E2B0034F7
:1006B00020303B1E3030BC003A08F700BA1F672BD1
:1006C000F709F70A7708BA002D30BC00BB173A08C3
:1006D000C0006430C10043237708BA003030780787
:1006E000BD003A08C0000A30C1004323303077070C
:1006F000BF0030307807BE003C08F700BB1D822BDE
:10070000BB1F3B113B1A8F2BBB1FAA2B3B19AA2BDC
:100710007708BD00BB18AA2B7708BE00AA2B303083
:100720003D02031DAA2B7708BD002030BC00BB1D75
:100730009D2B3B11BB14BB1FBB1030303E02031D71
:10074000AA2B7708BE002030BD00BB1D9D2BBB101F
:10075000BB1F3B103B1DAF2B3C08C0001823BB1C2C
:10076000B42B3D08C00018233B1CB92B3E08C00029
:1007700018233F08C000182300340310380D0C382C
:100780003904BB00C5013B08C60033210034840195
:1007900083131F30830583168E15073083129F0045
:1007A000AA01AB01AC01AD01AE01AF01B001B101D5
:1007B000B201B301B401B501B601B7018316010856
:1007C000C03907388100831290010030F800920090
:1007D000003083169200073083129F0083160508AD
:1007E0000330F700F70BF22B83121F080C1383164C
:1007F0009F01C03083128B040B165A29262A05301C
:10080000B800B9000E30BA000330BB000730BC009E
:100810001B30BD000530BE00AC22B70803198D2E79
:10082000B80138083B20003803191A2CB80AC00058
:100830001823112C370B492C861D482C861D2A2C79
:10084000A9018B1BA9178B130A30C900E220A91B31
:100850008B171E2CB40803192F2C0030302C0130BC
:10086000B400340B3E2CB80138085B200038031963
:100870003D2CB80AC0001823342C482CB801380885
:100880003B2000380319482CB80AC00018233F2C1D
:100890001A2CB408031DA82D3708013C0318A72DF6
:1008A000360BE72CB601B80138087B20B80AF700F0
:1008B000C000182308303802031D542C2A08BA003F
:1008C0000130BB0058233A30C00018232B08BA006F
:1008D0000130BB0058233A30C00018232C08BA005E
:1008E0000130BB0058231630B90039087B20B90A03
:1008F000F700C00018231E303902031D752C2D0887
:10090000BA000130BB0058232F30C00018232E0836
:10091000BA000130BB0058232F30C00018232F0825
:10092000BA000130BB0058232030C000182337081C
:10093000023C031DA52C0F30C1000130C20006236C
:100940000130B800B900BD23E72C3708033C031D74
:10095000B32C0C30C1000130C20006230130B800B6
:10096000B900BD23E72C3708043C031DC12C093016
:10097000C1000130C20006230130B800B900BD2318
:10098000E72C3708053C031DCE2C0930C100C201FD
:1009900006230130B800B900BD23E72C3708063C18
:1009A000031DDB2C0C30C100C20106230130B8004E
:1009B000B900BD23E72C3708073C031DE72C0F3097
:1009C000C100C20106230130B800B900BD233708B9
:1009D000023C031DFD2C861DFC2C861DF92CA90153
:1009E0008B1BA9178B130A30C900E220A91B8B1798
:1009F000ED2CAC010130B600A62D3708033C031DD9
:100A00001B2D861D1A2D861D0F2DA9018B1BA917C5
:100A10008B130A30C900E220A91B8B17032D01306C
:100A20002B07B900C0003C30C10043237708AB005E
:100A30000130B600A62D3708043C031D392D861D54
:100A4000382D861D2D2DA9018B1BA9178B130A305C
:100A5000C900E220A91B8B17212D01302A07B900FC
:100A6000C0001830C10043237708AA000130B60047
:100A7000A62D3708053C031D572D861D562D861DB6
:100A80004B2DA9018B1BA9178B130A30C900E2203B
:100A9000A91B8B173F2D01302D07B900C0001F3057
:100AA000C10043237708AD000130B600A62D3708FA
:100AB000063C031D752D861D742D861D692DA9010B
:100AC0008B1BA9178B130A30C900E220A91B8B17B7
:100AD0005D2D01302E07B900C0000C30C10043234A
:100AE0007708AE000130B600A62D3708073C031D7D
:100AF000932D861D922D861D872DA9018B1BA9176D
:100B00008B130A30C900E220A91B8B177B2D013003
:100B10002F07B900C0001430C10043237708AF008D
:100B20000130B600A62DB7012D08B8002E08B90077
:100B30002F08BA003008BB002A08BC002B08BD00F3
:100B40002C08BE00AC22B801B901BD234C2C8B2E61
:100B50003708013C03188B2E360B2E2EB601B30836
:100B60000319DB2DB8013808AD20B80AF700C00022
:100B7000182309303802031DB32D3108BA000130A3
:100B8000BB0058233A30C00018233208BA000130A5
:100B9000BB0058230A30C00018230730B9002030AA
:100BA000C0001823B90BCF2D4F30C00018234E3092
:100BB000C0001823062EB8013808C720B80AF7006D
:100BC000C000182309303802031DDC2D3108BA009B
:100BD0000130BB0058233A30C00018233208BA0055
:100BE0000130BB0058230A30C00018230730B90079
:100BF0002030C0001823B90BF82D4F30C000182347
:100C00004630C00018234630C00018233708023C85
:100C1000031D142E0D30C1000130C2000623013027
:100C2000B800B900BD232E2E3708033C031D222E29
:100C30000A30C1000130C20006230130B800B900FB
:100C4000BD232E2E3708043C031D2E2E0830C10074
:100C5000C20106230130B800B901BD233708023CA8
:100C6000031D4C2E861D4B2E861D402EA9018B1B6D
:100C7000A9178B130A30C900E220A91B8B17342E49
:100C800001303207B900C0003C30C100432377086F
:100C9000B2000130B6008A2E3708033C031D6A2ECD
:100CA000861D692E861D5E2EA9018B1BA9178B132D
:100CB0000A30C900E220A91B8B17522E01303107E0
:100CC000B900C0001830C10043237708B1000130DB
:100CD000B6008A2E3708043C031D862E861D852EFD
:100CE000861D7C2EA9018B1BA9178B130A30C90006
:100CF000E220A91B8B17702EB3080319812E003038
:100D0000822E0130B3000130B6008A2EB701B8013F
:100D1000B901BD23A82DB401C32F8316861400008A
:100D200006150000831286108316861000008312B9
:100D3000061183160611D0308312C0009921C0011C
:100D40009921831686140000061500008312061DE3
:100D5000A72E8610831686100000831206118316B4
:100D60000611D1308312C00099210130F700CD2146
:100D700078087F39B900BE0000227808AC00013045
:100D8000F700CD2178087F39B900BE00002278082D
:100D9000AB00F701CD2178083F39B900BE00002231
:100DA0007808AA0083168610000006158312061D17
:100DB000D72E0000DB2E0000831686140000861458
:100DC00000000615000083128610831686100000AE
:100DD0008312061183160611D0308312C0009921A8
:100DE0000330C00099218316861400000615000008
:100DF0008312061DF92E86108316861000008312BA
:100E0000061183160611D1308312C00099210130DA
:100E1000F700CD2178087F39B900BE00002278089C
:100E2000B0000130F700CD2178083F39B900BE008D
:100E300000227808AD000130F700CD2178081F3975
:100E4000B900BE0000227808AE00F701CD21780875
:100E5000B800BE0000227808AF008316861000009C
:100E600006158312061D322F0000362F0000831650
:100E7000861400008312B80138087B20B80AF700F6
:100E8000C000182308303802031D3C2F2A08BA007E
:100E90000130BB0058233A30C00018232B08BA0099
:100EA0000130BB0058233A30C00018232C08BA0088
:100EB0000130BB0058231630B90039087B20B90A2D
:100EC000F700C00018231E303902031D5D2F2D08C6
:100ED000BA000130BB0058232F30C00018232E0861
:100EE000BA000130BB0058232F30C00018232F0850
:100EF000BA000130BB0058232030C0001823043052
:100F0000B800A9018B1BA9178B13FA30C900E22086
:100F1000A91B8B17B80B812F31082A02031DC32F81
:100F200032082B02031DC32FAC08031DC32FB308C7
:100F30000319C32FB5013508093C031CC32F8316C1
:100F40008511831285150230B800A9018B1BA917E2
:100F50008B13FA30C900E220A91B8B17B80BA52F01
:100F600083168511831285110230B800A9018B1BED
:100F7000A9178B13FA30C900E220A91B8B17B80BF5
:0A0F8000B62FB50A9B2F0D2C63005D
:02400E00181F79
:00000001FF
;PIC16F628A
