:1000000000308A00B22D0000FF00030E8301A10022
:100010007F08A0000A08A8008A01A00E0408A20018
:100020007708A3007808A4007908A5007A08A6003C
:100030007B08A700831383128B1E20280B19E52A47
:10004000220884002308F7002408F8002508F90096
:100050002608FA002708FB0028088A00210E8300E2
:10006000FF0E7F0E09000A108A100A118207283439
:100070000C34013406340A108A100A1182070C3439
:100080002034543469346D3465343A3420342534A2
:100090003034323444343A34253430343234443415
:1000A0003A3425343034323444340A342034493438
:1000B0007434273473342034743469346D346534C3
:1000C00000340A108A100A1182070C342034543488
:1000D00069346D3465343A34203425343034323464
:1000E00044343A3425343034323444343A342034CD
:1000F00020340A34203441346C34613472346D3429
:100100002034613474343A34203425343034323479
:1001100044343A34253430343234443400340A1010
:100120008A100A1182070C342034543469346D3437
:1001300065343A34203425343034323444343A345B
:10014000203420343A3425343034323444340A34C0
:10015000203441346C34613472346D342034613471
:1001600074343A34203425343034323444343A341C
:10017000253430343234443400340A108A100A11E1
:1001800082070C342034543469346D3465343A3485
:100190003A3425343034323444343A34253430342B
:1001A000323444340A34203441346C34613472348F
:1001B0006D342034613474343A342034253430348E
:1001C000323444343A342534303432344434003414
:1001D0000A108A100A1182070C34203441346C341E
:1001E000613472346D343A3420342534303432344E
:1001F00044343A34203420340A344F344E340034FA
:100200000A148A100A1182070C34203441346C34E9
:10021000613472346D343A343A3425343034323403
:1002200044340A344F344E3400340A148A100A110C
:1002300082070C34203441346C34613472346D34B0
:100240003A34203425343034323444343A3420348F
:1002500020340A344F344634463400340A148A10A9
:100260000A1182070C34203441346C346134723406
:100270006D343A343A3425343034323444340A3428
:100280004F344634463400340A148A100A11820767
:100290000C34203441346C34613472346D343A346B
:1002A000203425343034323444343A342534303434
:1002B000323444340A3400340A148A100A11820792
:1002C0000C342034543469346D3465343A34203479
:1002D00025343034323444343A34253430343234F2
:1002E00044343A3425343034323444340A3400341B
:1002F0000A148A100A1182070C34203454346934E9
:100300006D3465343A342034253430343234443456
:100310003A3425343034323444343A3425343034A9
:10032000323444340A34203441346C34613472340D
:100330006D342034613474343A342034253430340C
:10034000323444343A342534303432344434003492
:100350000A148A100A1182070C34203441346C3498
:10036000613472346D343A342034253430343234CC
:1003700044343A3425343034323444340A344F343B
:100380004634463400340A148A100A1182070C34A9
:10039000203441346C34613472346D343A34203456
:1003A00025343034323444343A3425343034323421
:1003B00044340A344F344E340034F03066000615AD
:1003C0000000061400000608060E0F39CC000610C7
:1003D0000000061400000608060E0F39CB000610B8
:1003E000003066004C0EF700F030F70577084B043C
:1003F000F80000344C0EF039F7000F300605770492
:10040000860000000614042A061000348610DD2140
:100410007808CB00CB1B072A491C86104918861484
:1004200000000611000006104A0ECB000F30CB056D
:100430004B08CC00FA214A080F39CB00CC00FA2136
:10044000003445308400831300080319352A013035
:10045000F800F701F70B2A2AF80B292A4A30F7008F
:10046000F70B302A332A800B272A003444080C3A31
:100470000319412A063A0319492A023A03195F2A45
:10048000642AC9010130CA0006220230C5002122B7
:100490006A2A0130C5000230C600460B502A532A92
:1004A0004030C700542AC70101304502C70747083A
:1004B0008038C800C9014808CA0006226A2AC90152
:1004C0001030CA0006226A2A0130C9004408CA0056
:1004D00006226A2A00344508F80144020318732AE8
:1004E0004408F7007F2AF7010830C600C40DF70D55
:1004F000450877020318F700F80DC60B762A00347A
:1005000020303F1E3030C0003E08F700BE1F8F2A4B
:10051000F709F70A7708BE002D30C000BF173E0864
:10052000C4006430C5006B227708BE003030780705
:10053000C1003E08C4000A30C5006B223030770786
:10054000C30030307807C2004008F700BF1DAA2A58
:10055000BF1F3F113F1AB72ABF1FD22A3F19D22A05
:100560007708C100BF18D22A7708C200D22A3030DB
:100570004102031DD22A7708C1002030C000BF1DF0
:10058000C52A3F11BF14BF1FBF1030304202031DE8
:10059000D22A7708C2002030C100BF1DC52ABF1073
:1005A000BF1F3F103F1DD72A4008C4003622BF1C82
:1005B000DC2A4108C40036223F1CE12A4208C4005C
:1005C00036224308C40036220034AA0A2A08AF3C67
:1005D000031DC12C3108023C031D1F2BBB013B082E
:1005E0003B20BB0AF700C400362208303B02031D43
:1005F000EF2A2B08BE000130BF0080223A30C40031
:1006000036222C08BE000130BF0080223A30C400E0
:1006100036222D08BE000130BF0080221630BC00FB
:100620003C083B20BC0AF700C400362221303C02C3
:10063000031D102B8316851083128514C12C330BD8
:10064000532BBB013B086120BB0AF700C4003622D4
:1006500008303B02031D222B2B08BE000130BF00D7
:1006600080223A30C40036222C08BE000130BF0080
:1006700080221130BC003C086120BC0AF700C40095
:10068000362220303C02031D3B2B2E08BE000130D9
:10069000BF0080223A30C40036222F08BE0001304D
:1006A000BF008022C12C3308023C031D922BBB01EA
:1006B0003B088F20BB0AF700C400362208303B02FB
:1006C000031D582B2B08BE000130BF0080220C30C8
:1006D000BC003C088F20BC0AF700C4003622103052
:1006E0003C02031D692B2D08BE000130BF00802293
:1006F0001430BD003D088F20BD0AF700C40036222B
:1007000020303D02031D7A2B2E08BE000130BF00B1
:1007100080223A30C40036222F08BE000130BF00CC
:100720008022C12C3308033C031DD22BBB013B08A4
:10073000BD20BB0AF700C400362207303B02031D70
:10074000972B0330BC002030C4003622BC0BA32BF7
:100750003A30C40036222C08BE000130BF0080228F
:100760003A30C40036222D08BE000130BF0080227E
:100770001130BD003D08BD20BD0AF700C40036227F
:100780001D303D02031DBA2B2E08BE000130BF00F4
:1007900080223A30C40036222F08BE000130BF004C
:1007A0008022C12C300B052C310BD72BDB2B3108D1
:1007B000023C031D052CBB013B08E820BB0AF700E7
:1007C000C400362209303B02031DDC2B2E08BE007C
:1007D0000130BF0080220D30BC003C08E820BC0A7C
:1007E000F700C400362211303C02031DED2B073008
:1007F000BD002030C4003622BD0BF92B4F30C400A1
:1008000036224E30C4003622C12C3008023C031D73
:100810003B2C310B0C2C102C3108023C031D3B2CC3
:10082000BB013B080021BB0AF700C4003622083098
:100830003B02031D112C0330BC002030C4003622C3
:10084000BC0B1D2C3A30C40036222F08BE000130EC
:10085000BF0080220A30C40036220730BD0020309D
:10086000C4003622BD0B2F2C4F30C40036224E3030
:10087000C4003622C12C300B6D2CB108031D6D2C29
:10088000BB013B081521BB0AF700C4003622093022
:100890003B02031D412C2E08BE000130BF00802208
:1008A0000D30BC003C081521BC0AF700C4003622FC
:1008B00011303C02031D522C0730BD002030C40013
:1008C0003622BD0B5E2C4F30C40036224630C400A9
:1008D00036224630C4003622C12C3008023C031DAB
:1008E000A22CB108031DA22CBB013B082E21BB0A80
:1008F000F700C400362208303B02031D752C03307C
:10090000BC002030C4003622BC0B812C3A30C4001D
:1009100036222F08BE000130BF0080220A30C400FA
:1009200036220730BD002030C4003622BD0B932C88
:100930004F30C40036224630C40036224630C40050
:100940003622C12C3008033C031DC12CBB013B08DF
:100950004421BB0AF700C400362209303B02031DC4
:10096000A72C2E08BE000130BF0080223A30C40000
:1009700036222F08BE000130BF0080220A30C4009A
:1009800036222A08FA3C031DAF2DAA012D083C3C53
:10099000031DDD2CAD01AC0A3108023C031DD22C35
:1009A0000130B1002C083C3C031DDD2CAC01AB0A2E
:1009B0002B08183C031DDD2CAB013108023C031D44
:1009C000092DBB013B085C21BB0AF700C40036229D
:1009D00008303B02031DE22C2B08BE000130BF0093
:1009E00080223A30C40036222C08BE000130BF00FD
:1009F00080223A30C40036222D08BE000130BF00EC
:100A000080220A30C4003622831685108312851096
:100A10009D2DB008031D462DBB013B087821BB0A64
:100A2000F700C400362208303B02031D0D2D2B08B1
:100A3000BE000130BF0080223A30C40036222C08AC
:100A4000BE000130BF0080223A30C40036222D089B
:100A5000BE000130BF0080221630BC003C08782167
:100A6000BC0AF700C400362222303C02031D2E2DA2
:100A70002E08BE000130BF0080223A30C40036226A
:100A80002F08BE000130BF0080229D2DB108031D3C
:100A9000752DBB013B08A821BB0AF700C400362214
:100AA00009303B02031D4A2D2E08BE000130BF0055
:100AB00080223A30C40036222F08BE000130BF0029
:100AC00080220A30C40036220730BC002030C40027
:100AD0003622BC0B662D4F30C40036224630C4008F
:100AE00036224630C40036229D2DBB013B08C3216F
:100AF000BB0AF700C400362209303B02031D762DE5
:100B00002E08BE000130BF0080223A30C4003622D9
:100B10002F08BE000130BF0080220A30C4003622F8
:100B20000730BC002030C4003622BC0B922D4F3061
:100B3000C40036224E30C40036222E082B02031D7C
:100B4000AC2D2F082C02031DAC2D310BAC2DAD08A4
:100B5000031DAC2D0230B100AD0A063081000B112F
:100B60008A112028840183131F30830507309F00DA
:100B7000AA01AB01AC01AD01AE01AF01B001B10101
:100B8000B201B30100306600861006110610A901FB
:100B90008B1BA9178B130F30C5002122A91B8B17A4
:100BA0000130B4003408033C031CEA2DA9018B1B5F
:100BB000A9178B130330CC00FA21A91B8B17A901AD
:100BC0008B1BA9178B130530C5002122A91B8B177E
:100BD000B40AD22DA9018B1BA9178B130230CC00AC
:100BE000FA21A91B8B17B4013408033C031C072E00
:100BF00034083320B500A9018B1BA9178B13C90139
:100C00003508CA000622A91B8B17B40AF42D3C3004
:100C100065004030660083160108C0390338810042
:100C2000831290010030F800920000308316920089
:100C3000073083129F00831605080330F700F70B77
:100C40001F2E83121F080C1383169F0183128B160D
:100C5000C0308B0406308100851E472E3108023CCF
:100C6000031D392E0130B1008316851083128510C3
:100C7000B20A851A392EB2080319402EB201472E46
:100C8000B30AB0013308043C031D472EB301051E0F
:100C9000622E3108023C031D542E0130B100831630
:100CA000851083128510B20A051A542EB208031952
:100CB0005B2EB201622EB00AB3013008043C031D62
:100CC000622EB001851DAE2E3108023C031D6F2E31
:100CD0000130B1008316851083128510B20A851980
:100CE0006F2EB2080319762EB201AE2E330B7A2E78
:100CF000AD018F2E3308023C031D852EAC0A2C0853
:100D00003C3C031D842EAC018F2E3308033C031D95
:100D10008F2EAB0A2B08183C031D8F2EAB01300B16
:100D2000982EAF0A2F083C3C031D972EAF01AE2E24
:100D30003008023C031DA32EAE0A2E08183C031DEA
:100D4000A22EAE01AE2E3008033C031DAE2EB1081C
:100D5000031DAD2E0130B100AE2EB101051DFE2EDA
:100D60003108023C031DBB2E0130B10083168510F3
:100D700083128510B20A0519BB2EB2080319C22EC0
:100D8000B201FE2E330BC62EAD01DD2E3308023C20
:100D9000031DD22EAC08031DD02E3B30AC00D12E4B
:100DA000AC03DD2E3308033C031DDD2EAB08031D11
:100DB000DC2E1730AB00DD2EAB03300BE72EAF0877
:100DC000031DE52E3B30AF00E62EAF03FE2E3008AC
:100DD000023C031DF32EAE08031DF12E1730AE00AA
:100DE000F22EAE03FE2E3008033C031DFE2EB1088A
:100DF000031DFD2E0130B100FE2EB1012C2E63002B
:02400E000903A4
:00000001FF
;PIC16F628
