:1000000000308A00A42B0000FF00030E8301A10032
:100010007F08A0000A08A8008A01A00E0408A20018
:100020007708A3007808A4007908A5007A08A6003C
:100030007B08A700831383120B1E20288B18DB2854
:10004000220884002308F7002408F8002508F90096
:100050002608FA002708FB0028088A00210E8300E2
:10006000FF0E7F0E09000A108A100A118207283439
:100070000C34013406340A108A100A1182070C3439
:100080002A3420342034543469346D3465342034B7
:100090004D346F34643465340A34203420342034D1
:1000A00055347034673472346134643465340034E8
:1000B0000A108A100A1182070C34203420342034AC
:1000C000543469346D34653420344D346F346434C1
:1000D00065340A342A34203420345534703467347B
:1000E000723461346434653400340A108A100A11A1
:1000F00082070C342034543469346D3465343A3416
:10010000203425343034323444343A3425343034D5
:10011000323444343A3425343034323444340A34BA
:10012000203444346134743465343A342034253412
:100130003034323444342F3425343034323444347F
:100140002F342534303432344434203400340A100F
:100150008A100A1182070C342034203420342034D1
:100160002034203420344F344E3400340A108A10A6
:100170000A1182070C3420342034203420342034F7
:10018000203420344F344634463400344630840022
:10019000831300080319DA280130F800F701F70B80
:1001A000CF28F80BCE284A30F700F70BD528D828EF
:1001B000800BCC280034061CE1280A30C600C6207B
:1001C000DB28B40A0130B3008B108A1120284518AF
:1001D000EB280612EC280616831606128312C518A1
:1001E000F3288612F4288616831686128312451980
:1001F000FB280613FC280617831606138312C5195D
:100200000329861304298617831686130000051117
:10021000831205150B29831605118312051100346D
:1002200083160510831205101330F700F70B1629FB
:100230001929C208031921298316051083120514F0
:100240002529831605108312051000008316051159
:1002500083120511430EC4000F30C4054408C500C5
:10026000E72043080F39C400C500E7200034831697
:100270000510831205108316051183120511A901BB
:100280008B1BA9178B130F30C600C620A91B8B1719
:10029000B5013508023C031C5B290330C500E7208B
:1002A000A9018B1BA9178B130530C600C620A91BFB
:1002B0008B17B50A49290230C500E720B50135087A
:1002C000033C031C752935083320B600C2013608EB
:1002D000C3001021A9018B1BA9178B130530C60081
:1002E000C620A91B8B17B50A5F29D72B0830F80049
:1002F000000006118316061100008312BD0D861042
:10030000031C852983168614831203188A298316F1
:1003100086108312831606158312061D8D29F80B8D
:1003200078290000061183160611000086140000CB
:10033000000006158312061D9B29F801000086188F
:100340007814061183160611831286108316861000
:10035000831200340830BA007708BB008316861475
:10036000000006158312061DB32986180314861C87
:100370000310F80D00008316061183120611BA0B44
:10038000AE29831686140000831286103B080319D9
:10039000CC2983168610831200008316061583125B
:1003A000061DD029000006118316061100008312D5
:1003B000861083168610831200343B08BC0003109D
:1003C000BC0C7830BC053C0CF700F70C3F30F7054F
:1003D00077083C07BD003B080F393D07F8000034A3
:1003E0003C08BD00BE013D08093C0318FC290A3049
:1003F000BD021030BE07FF293D08BE07002AF329C1
:100400003E08F8000034B501831686140000061576
:1004100000008312861083168610000083120611D6
:1004200083160611D0308312BD007621BD017621DE
:10043000831686140000061500008312061D1E2A6E
:10044000861083168610000083120611831606118B
:10045000D1308312BD007621F701AA217808B600B9
:10046000BB00DD217808B500831686100000061554
:100470008312061D392A00003D2A000083168614C7
:1004800000008312B513442A00008316861400006E
:100490000615000083128610831686100000831252
:1004A000061183160611D0308312BD007621BD01DE
:1004B00076213508BC00F0217808B600BD00762111
:1004C000831686140000061500008312061D662A96
:1004D00086108316861000008312061183160611FB
:1004E000D0308312BD0076210730BD0076218030E8
:1004F000BD00762183168610000006158312061DA6
:100500007F2A0000832A00008316861400008312CD
:10051000D82BBB133F30B90583168614000006158F
:1005200000008312861083168610000083120611C5
:1005300083160611D0308312BD007621BD017621CD
:100540003B08BC00F0217808BC00BD0076213A08C9
:10055000BC00F0217808BC00BD0076213908BC0041
:10056000F0217808BC00BD0076213808BC00F021DD
:100570007808BC00BD0076213508BC00F021780861
:10058000BC00BD0076213608BC00F0217808BC0014
:10059000BD0076213708BC00F0217808BC00BD0002
:1005A00076218030BD007621831686100000061566
:1005B0008312061DD92A0000DD2A00008316861446
:1005C0000000831200343F0BE62AE92A4030C000C5
:1005D000EA2AC00101303E02C00740088038C1004D
:1005E000C2014108C300102100343D080C3A031930
:1005F000002B063A03190E2B023A0319142B192B60
:10060000C2010130C3001021A9018B1BA9178B1354
:100610000230C600C620A91B8B171F2B0130BE005D
:100620000230BF00E3221F2BC2011030C300102193
:100630001F2B0130C2003D08C30010211F2B0034C6
:100640003E08F8013D020318282B3D08F700342B23
:10065000F7010830BF00BD0DF70D3E087702031803
:10066000F700F80DBF0B2B2B00342030381E303034
:10067000B9003708F700B71F442BF709F70A7708C6
:10068000B7002D30B900B8173708BD006430BE0080
:1006900020237708B70030307807BA003708BD004C
:1006A0000A30BE00202330307707BC003030780796
:1006B000BB003908F700B81D5F2BB81F3811381A76
:1006C0006C2BB81F872B3819872B7708BA00B818FE
:1006D000872B7708BB00872B30303A02031D872B0E
:1006E0007708BA002030B900B81D7A2B3811B81439
:1006F000B81FB81030303B02031D872B7708BB00B2
:100700002030BA00B81D7A2BB810B81F3810381D29
:100710008C2B3908BD00F522B81C912B3A08BD007E
:10072000F522381C962B3B08BD00F5223C08BD0085
:10073000F52200340310350D0C383604B800C20120
:100740003808C30010210034840183131F3083054F
:1007500007309F00AA01AB01AC01AD01AE01AF01B2
:10076000B001B101B201B301B401003065008316DC
:100770000108C03907388100831290010030F80069
:100780009200003083169200073083129F00831678
:1007900005080330F700F70BCB2B83121F080C134F
:1007A00083169F01C03083128B040B163729032A4E
:1007B0000530B500B6000E30B7000330B800073082
:1007C000B9001B30BA000530BB008922B4080319F8
:1007D000D82DB50135083B2000380319F32BB50A95
:1007E000BD00F522EA2B340B222C861D212C861D00
:1007F000032CA9018B1BA9178B130A30C600C62036
:10080000A91B8B17F72BB2080319082C0030092CF1
:100810000130B200320B172CB501350858200038D2
:100820000319162CB50ABD00F5220D2C212CB5019B
:1008300035083B2000380319212CB50ABD00F522EC
:10084000182CF32BB208031D812D3408013C03182A
:10085000802D330BC02CB301B50135087520B50AC6
:10086000F700BD00F52208303502031D2D2C2A08A3
:10087000B7000130B80035233A30BD00F5222B080F
:10088000B7000130B80035233A30BD00F5222C08FE
:10089000B7000130B80035231630B6003608752091
:1008A000B60AF700BD00F5221E303602031D4E2C9D
:1008B0002D08B7000130B80035232F30BD00F522D8
:1008C0002E08B7000130B80035232F30BD00F522C7
:1008D0002F08B7000130B80035232030BD00F522C5
:1008E0003408023C031D7E2C0F30BE000130BF00D7
:1008F000E3220130B500B6009A23C02C3408033C33
:10090000031D8C2C0C30BE000130BF00E3220130EF
:10091000B500B6009A23C02C3408043C031D9A2C61
:100920000930BE000130BF00E3220130B500B6003F
:100930009A23C02C3408053C031DA72C0930BE00A7
:10094000BF01E3220130B500B6009A23C02C340861
:10095000063C031DB42C0C30BE00BF01E322013065
:10096000B500B6009A23C02C3408073C031DC02CE8
:100970000F30BE00BF01E3220130B500B6009A235C
:100980003408023C031DD62C861DD52C861DD22C86
:10099000A9018B1BA9178B130A30C600C620A91BFF
:1009A0008B17C62CAC010130B3007F2D3408033CFB
:1009B000031DF42C861DF32C861DE82CA9018B1B2E
:1009C000A9178B130A30C600C620A91B8B17DC2C75
:1009D00001302B07B600BD003C30BE002023770855
:1009E000AB000130B3007F2D3408043C031D122DF1
:1009F000861D112D861D062DA9018B1BA9178B1392
:100A00000A30C600C620A91B8B17FA2C01302A0712
:100A1000B600BD001830BE0020237708AA000130C0
:100A2000B3007F2D3408053C031D302D861D2F2D6E
:100A3000861D242DA9018B1BA9178B130A30C60014
:100A4000C620A91B8B17182D01302D07B600BD003D
:100A50001F30BE0020237708AD000130B3007F2D8A
:100A60003408063C031D4E2D861D4D2D861D422D3E
:100A7000A9018B1BA9178B130A30C600C620A91B1E
:100A80008B17362D01302E07B600BD000C30BE008E
:100A900020237708AE000130B3007F2D3408073CD7
:100AA000031D6C2D861D6B2D861D602DA9018B1BD2
:100AB000A9178B130A30C600C620A91B8B17542D0B
:100AC00001302F07B600BD001430BE002023770888
:100AD000AF000130B3007F2DB4012D08B5002E0802
:100AE000B6002F08B7003008B8002A08B9002B0854
:100AF000BA002C08BB008922B501B6019A23252C27
:100B0000D62D3408013C0318D62D330BB52DB30177
:100B1000B10803199A2DB5013508A720003803192B
:100B2000952DB50ABD00F5228C2D831685118312F3
:100B30008515A82DB5013508B62000380319A42D58
:100B4000B50ABD00F5229B2D8316851183128511F0
:100B50003408023C031DB52D0D30BE000130BF002E
:100B6000E3220130B500B6009A233408023C031D8D
:100B7000D12D861DD02D861DC72DA9018B1BA91730
:100B80008B130A30C600C620A91B8B17BB2DB108DA
:100B90000319CC2D0030CD2D0130B1000130B30050
:100BA000D52DB401B501B6019A23812DB201C42F10
:100BB0008316861400000615000083128610831623
:100BC000861000008312061183160611D03083129E
:100BD000BD007621BD01762183168614000006151E
:100BE00000008312061DF22D861083168610000069
:100BF0008312061183160611D1308312BD007621AF
:100C00000130F700AA2178087F39B600BB00DD214A
:100C10007808AC000130F700AA2178087F39B600C7
:100C2000BB00DD217808AB00F701AA2178083F3925
:100C3000B600BB00DD217808AA00831686100000EC
:100C400006158312061D222E0000262E0000831694
:100C5000861400008614000006150000831286101A
:100C60008316861000008312061183160611D030F9
:100C70008312BD0076210330BD00762183168614D1
:100C80000000061500008312061D442E86108316F0
:100C9000861000008312061183160611D1308312CC
:100CA000BD0076210130F700AA2178087F39B6000F
:100CB000BB00DD217808B0000130F700AA217808D8
:100CC0003F39B600BB00DD217808AD000130F700E8
:100CD000AA2178081F39B600BB00DD217808AE00D4
:100CE000F701AA217808B500BB00DD217808AF0024
:100CF00083168610000006158312061D7D2E000047
:100D0000812E00008316861400008312B501350879
:100D10007520B50AF700BD00F52208303502031D25
:100D2000872E2A08B7000130B80035233A30BD00BD
:100D3000F5222B08B7000130B80035233A30BD004A
:100D4000F5222C08B7000130B80035231630B60064
:100D500036087520B60AF700BD00F5221E303602AF
:100D6000031DA82E2D08B7000130B80035232F3001
:100D7000BD00F5222E08B7000130B80035232F3012
:100D8000BD00F5222F08B7000130B8003523203010
:100D9000BD00F5220430B500A9018B1BA9178B13E8
:100DA000FA30C600C620A91B8B17B50BCC2E2A081B
:100DB0000C3C031DB72F2B081E3C031DB72FAC089E
:100DC000031DB72F8316851183128515A9018B1B6F
:100DD000A9178B130A30C600C620A91B8B178316D0
:100DE00086140000061500008312861083168610F4
:100DF00000008312061183160611D0308312BD0045
:100E00007621BD01762183168614000006150000A8
:100E10008312061D092F8610831686100000831288
:100E2000061183160611D1308312BD0076210130E0
:100E3000F700AA2178087F39B600BB00DD217808C9
:100E4000AC000130F700AA2178087F39B600BB005A
:100E5000DD217808AB00F701AA2178083F39B600F8
:100E6000BB00DD217808AA00831686100000061555
:100E70008312061D392F00003D2F000083168614B3
:100E800000008614000006150000831286108316E9
:100E9000861000008312061183160611D0308312CB
:100EA000BD0076210330BD00762183168614000034
:100EB000061500008312061D5B2F86108316861010
:100EC00000008312061183160611D1308312BD0073
:100ED00076210130F700AA2178087F39B600BB00DF
:100EE000DD217808B0000130F700AA2178083F39E9
:100EF000B600BB00DD217808AD000130F700AA2163
:100F000078081F39B600BB00DD217808AE00F70174
:100F1000AA217808B500BB00DD217808AF00831650
:100F20008610000006158312061D942F0000982FCE
:100F30000000831686140000851183128511A90113
:100F40008B1BA9178B130A30C600C620A91B8B1751
:100F50002D08B5002E08B6002F08B7003008B800DD
:100F60002A08B9002B08BA002C08BB0089220430DB
:100F7000B500A9018B1BA9178B13FA30C600C62038
:0C0F8000A91B8B17B50BB92FE62B6300E3
:02400E00091F88
:00000001FF
;PIC16F628A
